:03000000020006F5
:10005F00750801750902750A04750B08750C107582
:0B006F000D20750E40750F800200038D
:0300030002009E5A
:10007A00AE82AF83EE4F60071EBEFF011F80F57E82
:10008A006E7F00EE24FFFCEF34FFFD8C068D07EC3B
:10009A004D70F0227F00EF2408F98790900064C029
:0E00AA000712007AD0070FBF080040EA80E678
:06003500E478FFF6D8FD9F
:100013007900E94400601B7A009000BC780175A068
:1000230000E493F2A308B8000205A0D9F4DAF2754C
:02003300A0FF2C
:10003B007800E84400600A790175A000E4F309D860
:10004B00FC7800E84400600C7900900001E4F0A318
:04005B00D8FCD9FAFA
:0D00060075810F1200B8E58260030200034F
:0400B800758200222B
:00000001FF
