:0B037B00EF1FAC0670011E4C70F62254
:10035700E4FDEDC39FEE6480F87480985009E4FCD7
:070367000CBC6EFC0D80EBE5
:01036E00226C
:10033200759D1FE4F5BCF5A275BC807F02FE120319
:100342007B75BC887F027E0012037BE5BC648860FB
:05035200FAE4F5BC22F5
:1002AC00E4F50BF50AF509F508F50CF50D1203321A
:1002BC00AFBD750C008F0DE50DAE0C7802C333CEBF
:1002CC0033CED8F9ADBE7C002DF50DEC3EF50CFC13
:1002DC00AD0DE412021BE4FBFA7980784412010C98
:1002EC00E4FBFA79A078401200038F0B8E0A8D097B
:1002FC008C08E4FBFA797A78441200038F0B8E0A8F
:10030C008D098C087F007EC07D287C45AB0BAA0A2A
:10031C00A909A8081201A96007400575A0EF808003
:03032C0075A0FFBA
:03032F000202AC1B
:10000300EC4D6011E8497017ED33EC3304600DE4F7
:10001300FCFFFEFD22E933E8330470F80202891283
:10002300025458046009E4CC248150062850090284
:100033000293284003020290C0E0EB4A7044B98067
:1000430006D0E0FB02027FEF4E701CBD8008EBFF81
:10005300EAFEE9FD80EBE98DF0A4FEE5F00200EC99
:10006300E9CDF9EAFEEBFFEF89F0A4FCE5F0CE89D8
:10007300F0A42EFFE435F0CD89F0A42DFEE435F095
:100083008067EF4E7005BD80D780C3EF8BF0A4ACC3
:10009300F0EE8BF0A42CFCE435F0F8EF8AF0A42CFE
:1000A300E5F038FCE433CB8DF0A42CFCE5F03BF811
:1000B300EE8AF0A42CFCE5F038F8E433CF89F0A401
:1000C3002CFCE5F038CF3400CE89F0A42FFFE5F007
:1000D3003EFEE433C98DF0A42EFEE5F039CD8AF05F
:1000E300A42FFFE5F03EFEE43DFD33D0E0FB5007D7
:1000F3000BBB000F020293EC2CFCEF33FFEE33FE3D
:06010300ED33FD02026B6A
:10010900020293EC5D046005E85904700302028958
:10011900120254580460F6EC4860F2EC7004FDFEDB
:10012900FF22C860DB2481C85009C39860025006C9
:100139000202909850CAF582E9294B4A7005AB82B0
:1001490002027F75F0007C1A7880C3EF9BEE9AED6E
:1001590099400DC3EF9BFFEE9AFEED99FDE842F041
:10016900DC23ACF0D0E0FFD0E0FED0E0FDAB822094
:10017900E7101BEB60BAEC2CFCEF33FFEE33FEED1E
:1001890033FD02026BE803F830E705C0F075F000B3
:10019900EF2FFFEE33FEED33FD40B830E7C280AA02
:1001A90074F8CC6480CCC86480C8F582046043C309
:1001B900EB9FF5F0EA9E42F0E99D42F0E89C45F09C
:1001C90060305018E5825FFFE582F42B5582FB50C1
:1001D900210ABA001D09B90019088016E5825BFBDE
:1001E900E582F42F5582FF50090EBE00050DBD00B2
:1001F900010CC3EB9FF5F0EA9E42F0E99D42F0E85D
:0D0209009C45F06007CC4820E701B3EC22D3
:1002160075F020800E75F010800575F0087D007E63
:10022600007F003392D530D50312029EEC33401086
:10023600EF33FFEE33FEED33FDEC33FCD5F0ED226C
:0E024600E5F0247EA2D513CC92E7CDCEFF22A8
:10025400E9D2E7C933E833F892D5EDD2E7CD33ECF0
:0702640033FC5002B2D52269
:10026B00EC30E7100FBF000C0EBE00080DBD0004F4
:10027B000BEB6014A2D5EB13FCED92E7FD2274FFA0
:10028B00FCFDFEFF22E480F8A2D574FF13FC7D80F9
:03029B00E480EF0D
:0300000002036F89
:0C036F00787FE4F6D8FD75810D0202AC29
:0E029E00C3E49FFFE49EFEE49DFDE49CFC2271
:00000001FF
