:10000300750AFE850A907508007509087FF47E015C
:1000130012006AAF0A7801EF08800123D8FDF50AC0
:10002300F590E509150970021508D3E5099401E572
:1000330008940050D7750800750908D3E5099401A1
:10004300E508940040BDAF0A7801EF08800103D8AA
:10005300FDF50A7FF47E0112006A850A90E5091511
:070063000970D8150880D4D4
:10006A00D3EF9400EE940040147D6E7C00ED1D7079
:0D007A00011CED4C70F7EF1F70E61E80E3D7
:010087002256
:0300000002008873
:0C008800787FE4F6D8FD75810A020003C1
:00000001FF
